:020000040000FA
:100000000C9429010C9451010C9451010C94510150
:100010000C9451010C9451010C9451010C94510118
:100020000C9451010C9451010C9451010C94510108
:100030000C9451010C9451010C9451010C945101F8
:100040000C9458040C9451010C9426040C94000454
:100050000C9451010C9451010C9451010C945101D8
:100060000C9451010C94510100000000250028005F
:100070002B0000000000240027002A0004040404D0
:100080000404040402020202020203030303030342
:10009000010204081020408001020408102001021F
:1000A000040810202C457869742043616C696272E1
:1000B0006174696F6E204D6F64653C3C3C003E3E50
:1000C0003E43616C6962726174696F6E204661695A
:1000D0006C6564003E3E3E43616C696272617469A6
:1000E0006F6E205375636365737366756C003E3E77
:1000F0003E53617475726174696F6E2043616C69FF
:1001000062726174696F6E2046696E697368213C22
:100110003C3C003E3E3E506C6561736520707574DA
:10012000207468652070726F626520696E746F203C
:100130007468652073617475726174696F6E206F85
:10014000787967656E20776174657221203C3C3C4C
:10015000003E3E3E456E7465722043616C6962727A
:100160006174696F6E204D6F64653C3C3C00436F69
:100170006D6D616E64204572726F72006D672F4CF9
:10018000002C2020444F2056616C75653A00295C94
:1001900067411F856341B81E5D413D0A5741A47008
:1001A00051410AD74B4152B846418FC24141C3F534
:1001B0003C41E17A3841F6283441F6283041EC518F
:1001C0002C41E17A2841CDCC2441AE4721418FC258
:1001D0001D415C8F1A41295C1741EC511441AE4717
:1001E000114166660E4114AE0B41B81E09415C8F89
:1001F0000641000004418FC2014152B8FE40713DEA
:10020000FA407B14F64085EBF1408FC2ED409A999D
:10021000E9408FC2E540713DE2406666DE4048E15C
:10022000DA40295CD740F628D440C3F5D040B81E48
:10023000CD405E4300202054656D70657261747519
:1002400072653A002020566F6C746167653A000051
:10025000EA0811241FBECFEFD8E0DEBFCDBF11E00A
:10026000A0E0B1E0ECE7F7E102C005900D92AA33FF
:10027000B107D9F722E0AAE3B1E001C01D92AA3B81
:10028000B207E1F711E0C9E2D1E004C02197FE0115
:100290000E949C0BC832D107C9F70E94A2040C949B
:1002A000BC0B0C940000AF92BF92CF92DF92EF9202
:1002B000FF920F931F93CF93DF936C017B018B0110
:1002C000040F151FEB015E01AE18BF08C017D10760
:1002D00059F06991D601ED91FC910190F081E02DEA
:1002E000C6010995892B79F7C501DF91CF911F913F
:1002F0000F91FF90EF90DF90CF90BF90AF90089557
:10030000FC01538D448D252F30E0842F90E0821B1B
:10031000930B541710F0CF96089501970895FC01A0
:10032000918D828D981761F0A28DAE0FBF2FB11DF8
:100330005D968C91928D9F5F9F73928F90E0089550
:100340008FEF9FEF0895FC01918D828D981731F00A
:10035000828DE80FF11D858D90E008958FEF9FEF5E
:100360000895FC01918D228D892F90E0805C9F4F34
:10037000821B91098F73992708958DE192E00E9465
:10038000B10121E0892B09F420E0822F089580E05B
:1003900090E0892B29F00E94BD0181110C9400008E
:1003A0000895FC01A48DA80FB92FB11DA35ABF4F0A
:1003B0002C91848D90E001968F739927848FA68964
:1003C000B7892C93A089B1898C91837080648C93B8
:1003D000938D848D981306C00288F389E02D808167
:1003E0008F7D80830895EF92FF920F931F93CF9399
:1003F000DF93EC0181E0888F9B8D8C8D98131AC060
:10040000E889F989808185FF15C09FB7F894EE8946
:10041000FF896083E889F9898081837080648083A3
:100420009FBF81E090E0DF91CF911F910F91FF90EE
:10043000EF900895F62E0B8D10E00F5F1F4F0F7396
:100440001127E02E8C8D8E110CC00FB607FCFACF51
:10045000E889F989808185FFF5CFCE010E94D1011D
:10046000F1CFEB8DEC0FFD2FF11DE35AFF4FF08222
:100470009FB7F8940B8FEA89FB8980818062CFCF88
:100480000F931F93CF93DF938C01D0E0C0E0F8016E
:10049000EC0FFD1F6491662341F08DE192E00E9414
:1004A000F301892B11F02196F2CFCE01DF91CF918C
:1004B0001F910F910895CF93DF93EC01888D8823CE
:1004C000B9F0AA89BB89E889F9898C9185FD03C0B7
:1004D000808186FD0DC00FB607FCF7CF8C9185FF9C
:1004E000F2CF808185FFEDCFCE010E94D101E9CF0F
:1004F000DF91CF9108958E3008F08E508770806420
:1005000080937C0080917A00806480937A0080914F
:100510007A0086FDFCCF8091780090917900089553
:100520003FB7F89480913F0190914001A091410123
:10053000B091420126B5A89B05C02F3F19F0019646
:10054000A11DB11D3FBFBA2FA92F982F8827BC012D
:10055000CD01620F711D811D911D42E0660F771F55
:10056000881F991F4A95D1F708952FB7F894609185
:100570003B0170913C0180913D0190913E012FBF64
:100580000895FC0101900020E9F73197AF01481B65
:10059000590BBC018DE192E00C94530182E191E092
:1005A0000C94C102CF93DF930E944002EC010E94A1
:1005B000CE028C0F9D1FDF91CF9108958F929F9255
:1005C000AF92BF920F931F93CF93DF93CDB7DEB758
:1005D000A1970FB6F894DEBF0FBECDBF19A242306F
:1005E00008F44AE08E010F5D1F4F842E912CB12C30
:1005F000A12CA50194010E947A0BE62FB901CA0132
:10060000EA30F4F4E05DD801EE938D01232B242B26
:10061000252B79F790E080E0109719F0CD010E942A
:10062000C102A1960FB6F894DEBF0FBECDBFDF9119
:10063000CF911F910F91BF90AF909F908F90089591
:10064000E95CE1CF4F925F926F927F928F929F927F
:10065000AF92BF92CF92DF92EF92FF920F931F93D0
:10066000CF936B017C01742EAC019B010E94750B32
:10067000882399F085E191E0CF911F910F91FF9030
:10068000EF90DF90CF90BF90AF909F908F907F9032
:100690006F905F904F900C94C10246015701E8940F
:1006A000B7F82FEF3FEF4FE75FE7C501B4010E94B6
:1006B000750B81110DC02FEF3FEF4FE75FE7C501CD
:1006C000B4010E94A40918161CF489E191E0D4CF6A
:1006D0002FEF3FEF4FE75FE4C701B6010E94030B26
:1006E00018161CF48DE191E0C7CF2FEF3FEF4FE7D5
:1006F0005FECC701B6010E94A40987FDF3CF20E09B
:1007000030E0A901C701B6010E94A40910E000E091
:1007100087FF0AC06DE28DE192E00E94F3018C0137
:10072000F7FAF094F7F8F094C0E060E070E080E051
:100730009FE37C1641F020E030E040E251E40E946B
:10074000A909CF5FF6CFA70196010E9438092B01B6
:100750003C010E94220A4B015C014AE00E94DE0239
:100760007C01E00EF11ECC23C1F1C501B4010E9451
:10077000510A9B01AC01C301B2010E9437094B0130
:100780005C016EE28DE192E00E94F301E80EF91E39
:10079000C15018F120E030E040E251E4C501B4015D
:1007A0000E94080B2B013C010E94220A4B01B12C34
:1007B000A12C4AE0C501B4010E94DE02E80EF91E38
:1007C000C501B4010E94510A9B01AC01C301B201F1
:1007D0000E9437094B015C01DBCFC701CF911F910C
:1007E0000F91FF90EF90DF90CF90BF90AF909F90D0
:1007F0008F907F906F905F904F9008950C94210997
:100800001F920F920FB60F9211242F933F934F9385
:100810005F936F937F938F939F93AF93BF93EF9368
:10082000FF938DE192E00E94D101FF91EF91BF9182
:10083000AF919F918F917F916F915F914F913F9178
:100840002F910F900FBE0F901F9018951F920F922F
:100850000FB60F9211242F938F939F93EF93FF93D3
:10086000E0912D02F0912E028081E0913302F0910F
:10087000340282FD1BC09081809136028F5F8F739E
:1008800020913702821741F0E0913602F0E0E35EFA
:10089000FD4F958F80933602FF91EF919F918F913D
:1008A0002F910F900FBE0F901F9018958081F4CF5D
:1008B0001F920F920FB60F9211242F933F938F9395
:1008C0009F93AF93BF9380913B0190913C01A09186
:1008D0003D01B0913E0130913A0123E0230F2D37C5
:1008E00058F50196A11DB11D20933A0180933B015B
:1008F00090933C01A0933D01B0933E0180913F0154
:1009000090914001A0914101B09142010196A11D39
:10091000B11D80933F0190934001A0934101B0939A
:100920004201BF91AF919F918F913F912F910F9075
:100930000FBE0F901F90189526E8230F0296A11D59
:10094000B11DD2CFCF93DF9300D0CDB7DEB778946F
:1009500084B5826084BD84B5816084BD85B58260C4
:1009600085BD85B5816085BD80916E008160809375
:100970006E001092810080918100826080938100DE
:1009800080918100816080938100809180008160EE
:10099000809380008091B10084608093B100809149
:1009A000B00081608093B00080917A008460809371
:1009B0007A0080917A00826080937A0080917A0038
:1009C000816080937A0080917A00806880937A00B9
:1009D0001092C100E0912D02F0912E0282E08083FE
:1009E000E0912902F0912A021082E0912B02F0910D
:1009F0002C0280E1808310923502E0913102F09167
:100A0000320286E08083E0912F02F09130028081F3
:100A100080618083E0912F02F091300280818860B4
:100A20008083E0912F02F091300280818068808382
:100A3000E0912F02F091300280818F7D8083EEE97A
:100A4000F0E02491EAE8F0E084918823C9F090E096
:100A5000880F991FFC01EE58FF4F45915491FC01FE
:100A6000E859FF4FA591B4919FB7F894FA0180819E
:100A70002095822380838C91E22FE823EC939FBF03
:100A80008CE090E00E94FE0380936B018DE090E08B
:100A90000E94FE0380936C018EE090E00E94FE03B2
:100AA00080936D018FE090E00E94FE0380936E01C1
:100AB00080E190E00E94FE0380936F0181E190E06D
:100AC0000E94FE038093700182E190E00E94FE0389
:100AD0008093710183E190E00E94FE038093720194
:100AE0008CE090E00E94FE038F3FA9F58DE090E03E
:100AF0000E94FE038F3F79F58EE090E00E94FE0396
:100B00008F3F49F58FE090E00E94FE038F3F19F57B
:100B100083E393EFACE8B4E480936B0190936C01B2
:100B2000A0936D01B0936E0163E38CE090E00E94AE
:100B3000290960916C018DE090E00E942909609183
:100B40006D018EE090E00E94290960916E018FE0B6
:100B500090E00E94290980E190E00E94FE038F3F0F
:100B600009F422C15FE0252E52E0352E60E0862E8A
:100B700060E0962E11E08091150281110CC00E9458
:100B8000B502609311027093120280931302909346
:100B90001402109315020E94B50240901102509069
:100BA000120260901302709014026419750986098C
:100BB00097096F3171058105910520F10E94B502F9
:100BC00060931102709312028093130290931402A7
:100BD000E0900F02F09010028EE00E947B02F7017D
:100BE000EE0FFF1FED52FE4F91838083FFEFEF1A50
:100BF000FF0A0EE1E016F10409F40FC1F0921002B1
:100C0000E0920F028091CB0181110CC00E94B502CD
:100C10006093C7017093C8018093C9019093CA0182
:100C20001093CB010E94B5024090C7015090C801BB
:100C30006090C9017090CA01641975098609970905
:100C4000653F71408105910508F472C00E94B502AC
:100C50006093C7017093C8018093C9019093CA0142
:100C60003AE0A32EB12C8FE00E947B029A83898305
:100C70009093C6018093C5010E9490026B017C0194
:100C80002AE0422E512C612C712C0E9490026C198A
:100C90007D098E099F09683E734081059105A8F37F
:100CA00031E0431A51086108710888EEC80E83E0EC
:100CB000D81EE11CF11C411451046104710429F790
:100CC000B1E0AB1AB10879F6E981FA81BF01FF0FF3
:100CD000880B990B0E94530A2B013C0120E737E750
:100CE00046E15EE30E94080B9B01AC0161E074E801
:100CF00081E992E40E9437096B017C0123EC3BE01F
:100D000049E058E3C301B2010E94080BA30192011C
:100D10000E94080B9B01AC01C701B6010E94380973
:100D20006093C1017093C2018093C3019093C40189
:100D30008091B90181110CC00E94B5026093B50188
:100D40007093B6018093B7019093B8011093B901E5
:100D50000E94B5024090B5015090B6016090B70175
:100D60007090B8016419750986099709693E734046
:100D70008105910508F420C10E94B5026093B50178
:100D80007093B6018093B7019093B801E3EDF1E061
:100D900087E791E0DC012E163F0609F443C021915C
:100DA00031912D933D93F7CF81E190E00E94FE03B6
:100DB0008F3F09F0D7CE82E190E00E94FE038F3F83
:100DC00009F0D0CE83E190E00E94FE038F3F09F04E
:100DD000C9CE80E090E0A8ECB1E480936F019093DD
:100DE0007001A0937101B093720160E080E190E026
:100DF0000E9429096091700181E190E00E94290917
:100E00006091710182E190E00E9429096091720174
:100E100083E190E00E942909A5CE10921002109261
:100E20000F02F0CE2EE130E03093B4012093B301F5
:100E3000EDB6FEB6ADB7BEB7DC970FB6F894BEBF41
:100E40000FBEADBFEDB7FEB731966F01DF0140E0D9
:100E5000FC0121913191CF012D933D934F5F4E3194
:100E6000B9F78DE190E0F60130E020E0281739076E
:100E70009CF4419151912F5F3F4F608171816417C4
:100E80007507A4F75F0102E0A01AB108D5016D93C0
:100E90007C9351834083EACF019729F7F601668D51
:100EA000778D848D958D680F791F77FF02C06F5FF6
:100EB0007F4F759567950FB6F894FEBE0FBEEDBED9
:100EC000072E000C880B990B0E94530A20E030E497
:100ED0004CE955E40E94080B20E030E040E85AE37A
:100EE0000E94080B609373017093740180937501E5
:100EF0009093760184E492E00E9440026091730135
:100F000070917401809175019091760141E00E9489
:100F1000220385E392E00E9440026091C10170913A
:100F2000C2018091C3019091C40141E00E9422035B
:100F300082E392E00E94400260916F017091700123
:100F400080917101909172010E941B0AFB01EE0FCA
:100F5000FF1FEE0FFF1FE257FE4F659175918591C0
:100F600094912091730130917401409175015091D9
:100F700076010E94080B20916B0130916C01409129
:100F80006D0150916E010E94A9092B013C01409214
:100F90006701509268016092690170926A0181E86C
:100FA00091E00E94400241E0C301B2010E9422038D
:100FB0008CE791E00E94D2028091480181110CC01F
:100FC0000E94B502609344017093450180934601ED
:100FD00090934701109348018DE192E00E94B10186
:100FE000181619060CF0E7C00E94B50240904401A3
:100FF0005090450160904601709047016419750951
:1010000086099709653F71408105910540F010926E
:101010004301A0E5B1E0E5E11D92EA95E9F70E9400
:10102000B50260934401709345018093460190930B
:1010300047018DE192E00E948F018A3021F090916A
:101040004301943151F51092430180E591E00E94F3
:10105000170961E271E080E591E00E94A20B892B03
:1010600009F099C06DE271E080E591E00E94A20B69
:10107000F0906601892B09F077C062E371E080E5AA
:1010800091E00E94A20B892B89F4FF2009F493C000
:101090008EE691E00E94D2028EC0E92FF0E0E05B84
:1010A000FE4F80839F5F9093430196CFFF2009F40A
:1010B00082C00E94CE028EEE90E00E94D2020E9478
:1010C000CE02609173018CE090E00E94290960914A
:1010D00074018DE090E00E942909609175018EE015
:1010E00090E00E942909609176018FE090E00E94D3
:1010F00029096091C10180E190E00E942909609175
:10110000C20181E190E00E9429096091C30182E15E
:1011100090E00E9429096091C40183E190E00E945F
:1011200029098091730190917401A0917501B0918A
:10113000760180936B0190936C01A0936D01B09345
:101140006E018091C1019091C201A091C301B09143
:10115000C40180936F0190937001A0937101B093CB
:1011600072011093650127C0FF2029F10E94CE0271
:1011700080916501882359F184ED90E00E9440023E
:1011800084EA90E00E94D2020E94CE021092650191
:101190001092660110C010936601109265010E94C2
:1011A000CE0281E591E00E94D20283E191E00E94AB
:1011B000D2020E94CE028114910409F4DCCC0E9478
:1011C000BD01882309F4D7CC0E940000D4CC8EEB5B
:1011D00090E0D4CFEDE1F2E01382128288EE93E04A
:1011E000A0E0B0E084839583A683B78384E091E098
:1011F0009183808385EC90E09587848784EC90E0F0
:101200009787868780EC90E0918B808B81EC90E0D3
:10121000938B828B82EC90E0958B848B86EC90E0B4
:10122000978B868B118E128E138E148E0895DC018F
:101230006C9161566A3108F0605E6F5B6D93C1F727
:101240000895F999FECF92BD81BDF89A992780B58E
:101250000895262FF999FECF1FBA92BD81BD20BDFA
:101260000FB6F894FA9AF99A0FBE0196089550585D
:10127000BB27AA270E944F090C94C90A0E94BB0AE7
:1012800038F00E94C20A20F039F49F3F19F426F486
:101290000C94B80A0EF4E095E7FB0C94B20AE92F1F
:1012A0000E94DA0A58F3BA17620773078407950792
:1012B00020F079F4A6F50C94FC0A0EF4E0950B2EC0
:1012C000BA2FA02D0B01B90190010C01CA01A00198
:1012D0001124FF27591B99F0593F50F4503E68F1F3
:1012E0001A16F040A22F232F342F4427585FF3CF34
:1012F000469537952795A795F0405395C9F77EF405
:101300001F16BA0B620B730B840BBAF09150A1F04D
:10131000FF0FBB1F661F771F881FC2F70EC0BA0FD3
:10132000621F731F841F48F4879577956795B7955B
:10133000F7959E3F08F0B0CF9395880F08F0992756
:10134000EE0F9795879508950E948E0A08F481E024
:1013500008950E94BD090C94C90A0E94C20A58F05F
:101360000E94BB0A40F029F45F3F29F00C94B20AB6
:1013700051110C94FD0A0C94B80A0E94DA0A68F321
:101380009923B1F3552391F3951B550BBB27AA273E
:1013900062177307840738F09F5F5F4F220F331F78
:1013A000441FAA1FA9F335D00E2E3AF0E0E832D040
:1013B00091505040E695001CCAF72BD0FE2F29D043
:1013C000660F771F881FBB1F261737074807AB0715
:1013D000B0E809F0BB0B802DBF01FF2793585F4F8A
:1013E0003AF09E3F510578F00C94B20A0C94FD0A35
:1013F0005F3FE4F3983ED4F3869577956795B7956C
:10140000F7959F5FC9F7880F911D9695879597F976
:101410000895E1E0660F771F881FBB1F62177307EF
:101420008407BA0720F0621B730B840BBA0BEE1F04
:1014300088F7E09508950E94220A6894B1110C94EF
:10144000FD0A08950E94E20A88F09F5798F0B92F8C
:101450009927B751B0F0E1F0660F771F881F991FE9
:101460001AF0BA95C9F714C0B13091F00E94FC0A85
:10147000B1E008950C94FC0A672F782F8827B85F95
:1014800039F0B93FCCF3869577956795B395D9F741
:101490003EF490958095709561957F4F8F4F9F4F4B
:1014A0000895E89409C097FB3EF490958095709557
:1014B00061957F4F8F4F9F4F9923A9F0F92F96E9A0
:1014C000BB279395F695879577956795B795F11115
:1014D000F8CFFAF4BB0F11F460FF1BC06F5F7F4FB2
:1014E0008F4F9F4F16C0882311F096E911C07723C4
:1014F00021F09EE8872F762F05C0662371F096E8CD
:10150000862F70E060E02AF09A95660F771F881F9B
:10151000DAF7880F9695879597F90895990F00083F
:10152000550FAA0BE0E8FEEF16161706E807F907B5
:10153000C0F012161306E407F50798F0621B730B50
:10154000840B950B39F40A2661F0232B242B252BD1
:1015500021F408950A2609F4A140A6958FEF811D74
:10156000811D089597F99F6780E870E060E0089515
:101570009FEF80EC089500240A94161617061806AB
:101580000906089500240A94121613061406050687
:101590000895092E0394000C11F4882352F0BB0F18
:1015A00040F4BF2B11F460FF04C06F5F7F4F8F4F7B
:1015B0009F4F089557FD9058440F551F59F05F3FB6
:1015C00071F04795880F97FB991F61F09F3F79F065
:1015D00087950895121613061406551FF2CF4695E7
:1015E000F1DF08C0161617061806991FF1CF869569
:1015F0007105610508940895E894BB27662777274D
:10160000CB0197F908950E948E0A08F48FEF089590
:101610000E941B0B0C94C90A0E94BB0A38F00E945E
:10162000C20A20F0952311F00C94B20A0C94B80A67
:1016300011240C94FD0A0E94DA0A70F3959FC1F3FD
:10164000950F50E0551F629FF001729FBB27F00D70
:10165000B11D639FAA27F00DB11DAA1F649F6627C5
:10166000B00DA11D661F829F2227B00DA11D621F14
:10167000739FB00DA11D621F839FA00D611D221FCE
:10168000749F3327A00D611D231F849F600D211DB2
:10169000822F762F6A2F11249F5750409AF0F1F035
:1016A00088234AF0EE0FFF1FBB1F661F771F881F9E
:1016B00091505040A9F79E3F510580F00C94B20A1A
:1016C0000C94FD0A5F3FE4F3983ED4F3869577953A
:1016D0006795B795F795E7959F5FC1F7FE2B880F44
:1016E000911D9695879597F908950E948E0A880B0B
:1016F000990B0895A1E21A2EAA1BBB1BFD010DC078
:10170000AA1FBB1FEE1FFF1FA217B307E407F507B1
:1017100020F0A21BB30BE40BF50B661F771F881F8D
:10172000991F1A9469F760957095809590959B0123
:10173000AC01BD01CF010895EE0FFF1F0590F4919C
:10174000E02D0994FB0151915523A9F0BF01DC0163
:101750004D9145174111E1F759F4CD010190002059
:1017600049F04D9140154111C9F3FB014111EFCFF3
:1017700081E090E001970895F894FFCF0000000009
:10178000F301530180015B02B1018F01A3010D0A36
:10179000006E616E00696E66006F76660043414CB4
:1017A0004942524154494F4E004558495400534113
:0617B0005443414C00000F
:107E0000112484B714BE81FFF0D085E080938100F7
:107E100082E08093C00088E18093C10086E0809377
:107E2000C20080E18093C4008EE0C9D0259A86E02C
:107E300020E33CEF91E0309385002093840096BBD3
:107E4000B09BFECF1D9AA8958150A9F7CC24DD24C4
:107E500088248394B5E0AB2EA1E19A2EF3E0BF2EE7
:107E6000A2D0813461F49FD0082FAFD0023811F036
:107E7000013811F484E001C083E08DD089C08234E0
:107E800011F484E103C0853419F485E0A6D080C0E4
:107E9000853579F488D0E82EFF2485D0082F10E0AE
:107EA000102F00270E291F29000F111F8ED06801E7
:107EB0006FC0863521F484E090D080E0DECF843638
:107EC00009F040C070D06FD0082F6DD080E0C81688
:107ED00080E7D80618F4F601B7BEE895C0E0D1E017
:107EE00062D089930C17E1F7F0E0CF16F0E7DF06D8
:107EF00018F0F601B7BEE89568D007B600FCFDCFD4
:107F0000A601A0E0B1E02C9130E011968C91119780
:107F100090E0982F8827822B932B1296FA010C0160
:107F200087BEE89511244E5F5F4FF1E0A038BF0790
:107F300051F7F601A7BEE89507B600FCFDCF97BE46
:107F4000E89526C08437B1F42ED02DD0F82E2BD052
:107F50003CD0F601EF2C8F010F5F1F4F84911BD097
:107F6000EA94F801C1F70894C11CD11CFA94CF0C13
:107F7000D11C0EC0853739F428D08EE10CD085E9AC
:107F80000AD08FE07ACF813511F488E018D01DD067
:107F900080E101D065CF982F8091C00085FFFCCF94
:107FA0009093C60008958091C00087FFFCCF809118
:107FB000C00084FD01C0A8958091C6000895E0E648
:107FC000F0E098E1908380830895EDDF803219F02E
:107FD00088E0F5DFFFCF84E1DECF1F93182FE3DFCA
:107FE0001150E9F7F2DF1F91089580E0E8DFEE27F6
:047FF000FF270994CA
:027FFE00040479
:00000001FF
